{
  "contractName": "GroceryList",
  "abi": [
    {
      "constant": true,
      "inputs": [],
      "name": "groceryCount",
      "outputs": [
        {
          "name": "",
          "type": "uint256"
        }
      ],
      "payable": false,
      "stateMutability": "view",
      "type": "function",
      "signature": "0xbd20b313"
    },
    {
      "constant": true,
      "inputs": [
        {
          "name": "",
          "type": "uint256"
        }
      ],
      "name": "grocery",
      "outputs": [
        {
          "name": "id",
          "type": "uint256"
        },
        {
          "name": "content",
          "type": "string"
        },
        {
          "name": "completed",
          "type": "bool"
        }
      ],
      "payable": false,
      "stateMutability": "view",
      "type": "function",
      "signature": "0xd3d1f962"
    },
    {
      "inputs": [],
      "payable": false,
      "stateMutability": "nonpayable",
      "type": "constructor",
      "signature": "constructor"
    },
    {
      "anonymous": false,
      "inputs": [
        {
          "indexed": false,
          "name": "id",
          "type": "uint256"
        },
        {
          "indexed": false,
          "name": "content",
          "type": "string"
        },
        {
          "indexed": false,
          "name": "completed",
          "type": "bool"
        }
      ],
      "name": "GroceryCreated",
      "type": "event",
      "signature": "0xa642d4eb34f5858200c09d175a086c8aa3cb57645d9629509e306ccb18191e5a"
    },
    {
      "anonymous": false,
      "inputs": [
        {
          "indexed": false,
          "name": "id",
          "type": "uint256"
        },
        {
          "indexed": false,
          "name": "completed",
          "type": "bool"
        }
      ],
      "name": "GroceryCompleted",
      "type": "event",
      "signature": "0xf9852da8e056c2bb081899f561c0cd13a9b7b66ec2e047bc25b1248be331b0fc"
    },
    {
      "constant": false,
      "inputs": [
        {
          "name": "_content",
          "type": "string"
        }
      ],
      "name": "createGrocery",
      "outputs": [],
      "payable": false,
      "stateMutability": "nonpayable",
      "type": "function",
      "signature": "0x7bd68379"
    },
    {
      "constant": false,
      "inputs": [
        {
          "name": "_id",
          "type": "uint256"
        }
      ],
      "name": "toggleCompleted",
      "outputs": [],
      "payable": false,
      "stateMutability": "nonpayable",
      "type": "function",
      "signature": "0x455f5024"
    }
  ],
  "bytecode": "0x60806040526000805534801561001457600080fd5b5060408051808201909152601281527f4578616d706c65204974656d3a204d696c6b0000000000000000000000000000602082015261005b90640100000000610060810204565b61021f565b60008054600190810180835560408051606081018252828152602080820187815282840187905293865284815291909420845181559151805192936100ad93908501929190910190610184565b5060408201518160020160006101000a81548160ff0219169083151502179055509050507fa642d4eb34f5858200c09d175a086c8aa3cb57645d9629509e306ccb18191e5a600054826000604051808481526020018060200183151515158152602001828103825284818151815260200191508051906020019080838360005b8381101561014557818101518382015260200161012d565b50505050905090810190601f1680156101725780820380516001836020036101000a031916815260200191505b5094505050505060405180910390a150565b828054600181600116156101000203166002900490600052602060002090601f016020900481019282601f106101c557805160ff19168380011785556101f2565b828001600101855582156101f2579182015b828111156101f25782518255916020019190600101906101d7565b506101fe929150610202565b5090565b61021c91905b808211156101fe5760008155600101610208565b90565b6106448061022e6000396000f3fe6080604052600436106100615763ffffffff7c0100000000000000000000000000000000000000000000000000000000600035041663455f502481146100665780637bd6837914610092578063bd20b31314610145578063d3d1f9621461016c575b600080fd5b34801561007257600080fd5b506100906004803603602081101561008957600080fd5b5035610220565b005b34801561009e57600080fd5b50610090600480360360208110156100b557600080fd5b8101906020810181356401000000008111156100d057600080fd5b8201836020820111156100e257600080fd5b8035906020019184600183028401116401000000008311171561010457600080fd5b91908080601f016020809104026020016040519081016040528093929190818152602001838380828437600092019190915250929550610380945050505050565b34801561015157600080fd5b5061015a6104a4565b60408051918252519081900360200190f35b34801561017857600080fd5b506101966004803603602081101561018f57600080fd5b50356104aa565b604051808481526020018060200183151515158152602001828103825284818151815260200191508051906020019080838360005b838110156101e35781810151838201526020016101cb565b50505050905090810190601f1680156102105780820380516001836020036101000a031916815260200191505b5094505050505060405180910390f35b610228610559565b60008281526001602081815260409283902083516060810185528154815281840180548651600296821615610100026000190190911695909504601f810185900485028601850190965285855290949193858401939092908301828280156102d15780601f106102a6576101008083540402835291602001916102d1565b820191906000526020600020905b8154815290600101906020018083116102b457829003601f168201915b50505091835250506002919091015460ff161515602091820152604080830180511590526000858152600180845291902083518155838301518051949550859491936103229385019291019061057d565b50604091820151600291909101805460ff1916911515919091179055818101518151848152901515602082015281517ff9852da8e056c2bb081899f561c0cd13a9b7b66ec2e047bc25b1248be331b0fc929181900390910190a15050565b60008054600190810180835560408051606081018252828152602080820187815282840187905293865284815291909420845181559151805192936103cd9390850192919091019061057d565b5060408201518160020160006101000a81548160ff0219169083151502179055509050507fa642d4eb34f5858200c09d175a086c8aa3cb57645d9629509e306ccb18191e5a600054826000604051808481526020018060200183151515158152602001828103825284818151815260200191508051906020019080838360005b8381101561046557818101518382015260200161044d565b50505050905090810190601f1680156104925780820380516001836020036101000a031916815260200191505b5094505050505060405180910390a150565b60005481565b600160208181526000928352604092839020805481840180548651600296821615610100026000190190911695909504601f810185900485028601850190965285855290949193929091908301828280156105465780601f1061051b57610100808354040283529160200191610546565b820191906000526020600020905b81548152906001019060200180831161052957829003601f168201915b5050506002909301549192505060ff1683565b60606040519081016040528060008152602001606081526020016000151581525090565b828054600181600116156101000203166002900490600052602060002090601f016020900481019282601f106105be57805160ff19168380011785556105eb565b828001600101855582156105eb579182015b828111156105eb5782518255916020019190600101906105d0565b506105f79291506105fb565b5090565b61061591905b808211156105f75760008155600101610601565b9056fea165627a7a7230582087fc3a615931844f5e3faab401a78ebbb6935b580315bd7e1d401c46e9094a870029",
  "source": "pragma solidity ^0.5.0;\n\ncontract GroceryList {\n  uint public groceryCount = 0;\n\n  struct Grocery {\n    uint id;\n    string content;\n    bool completed;\n  }\n\n  mapping(uint => Grocery) public grocery;\n\n  event GroceryCreated(\n    uint id,\n    string content,\n    bool completed\n  );\n\n  event GroceryCompleted(\n    uint id,\n    bool completed\n  );\n\n  constructor() public {\n    createGrocery(\"Example Item: Milk\");\n  }\n\n  function createGrocery(string memory _content) public {\n    groceryCount ++;\n    grocery[groceryCount] = Grocery(groceryCount, _content, false);\n    emit GroceryCreated(groceryCount, _content, false);\n  }\n\n  function toggleCompleted(uint _id) public {\n    Grocery memory _grocery = grocery[_id];\n    _grocery.completed = !_grocery.completed;\n    grocery[_id] = _grocery;\n    emit GroceryCompleted(_id, _grocery.completed);\n  }\n}",
  "sourcePath": "/Users/blakerodgers/Desktop/eth-todo-list/contracts/GroceryList.sol",
  "compiler": {
    "name": "solc",
    "version": "0.5.0+commit.1d4f565a.Emscripten.clang"
  },
  "schemaVersion": "3.0.1",
  "updatedAt": "2025-03-27T13:56:10.504Z",
  "devdoc": {
    "methods": {}
  },
  "userdoc": {
    "methods": {}
  }
}